:020000040800F2
:10000000C008002001010008F11F0008F31F0008CC
:10001000F71F0008FB1F0008FF1F0008000000007A
:1000200000000000000000000000000003200008A5
:100030000520000800000000072000080920000833
:100040001B0100081B0100081B0100081B01000820
:100050001B0100081B0100081B0100081B01000810
:100060001B0100081B0100081B0100081B01000800
:100070001B0100081B0100081B0100081B010008F0
:100080001B0100081B0100081B0100081B010008E0
:100090001B0100081B0100081B0100081B010008D0
:1000A0001B0100081B0100081B0100081B010008C0
:1000B0001B0100081B0100081B0100081B010008B0
:1000C0001B0100081B0100081B0100081B010008A0
:1000D0001B0100084F880008152000081B010008BC
:1000E0001B0100081B0100081B010008DFF80CD0F1
:1000F00009F010F900480047411C0008C008002022
:100100000648804706480047FEE7FEE7FEE7FEE7B1
:10011000FEE7FEE7FEE7FEE7FEE7FEE70302000874
:10012000ED0000080CB50020019000906C480068BC
:1001300040F480306A49086000BF6948006800F4F4
:10014000003000900198401C0190009818B9019867
:10015000B0F5A06FF1D16248006800F4003010B132
:100160000120009001E0002000900098012843D178
:100170005C48006840F010005A4908600846006872
:1001800020F0030008600846006840F002000860A4
:1001900053484068524948600846406848600846ED
:1001A000406840F4806048600846406820F47C1055
:1001B00048600846406840F4E81048600846006817
:1001C00040F08070086000BF4548006800F0007093
:1001D0000028F9D04248406820F0030040494860B8
:1001E0000846406840F00200486000BF3C48406854
:1001F00000F00C000828F9D10CBD10B5FFF792FFF4
:1002000010BD10B53648006840F001003449086060
:10021000084640683449084031494860084600684B
:10022000324908402E4908600846006820F48020C2
:1002300008600846406820F4FE0048604FF41F0044
:100240008860FFF7DAFF4FF000602949086010BDB1
:1002500010B5002100200022214B5B6803F00C0147
:1002600021B1042906D0082928D107E0214B224CCE
:10027000236027E01F4B204C236023E0184B5B6872
:1002800003F47010164B5B6803F48032022303EB17
:10029000904022B9194B4343174C23600DE0104B9B
:1002A0005B6803F4003323B1144B4343124C2360C7
:1002B00003E0104B4343104C236003E00D4B0E4C06
:1002C000236000BF00BF064B5B68C3F303130C4CF5
:1002D000E15C094B1B68CB40074C236010BD00005C
:1002E00000100240002002400000FFF8FFFFF6FE71
:1002F00008ED00E000127A000000002000093D0037
:100300000400002031490143314A1160704770B543
:10031000002100230F22C47804B32D4C246804F478
:10032000E064C4F5E064210AC1F10403CA404478E2
:1003300004FA03F18478144021430901254C06781E
:10034000A155047804F01F050124AC4005786D1117
:10035000AD0005F1E025C5F8004109E0047804F09E
:100360001F050124AC401C4D0678761145F8264047
:1003700070BD1A4A0A400243154B1B1F1A60704792
:1003800039B1134A121D12680243114B1B1D1A602A
:1003900006E00F4A121D126882430D4B1B1D1A60A6
:1003A0007047042808D14FF0E021096941F00401A9
:1003B0004FF0E022116107E04FF0E021096921F0E0
:1003C00004014FF0E0221161704700000000FA05BF
:1003D0000CED00E000E400E080E100E080FFFF1FA2
:1003E00010B50446FA48844208D10121401501F0B5
:1003F00053F80021601501F04FF817E0F5488442EA
:1004000008D10121001501F047F80021201501F065
:1004100043F80BE0F048844208D10121C80301F001
:100420003BF800214FF4004001F036F810BD30B524
:100430000246002000235068E84C20400D790C68EB
:1004400044EA0524204350609068E54C2040D1E9FF
:1004500002542C434D7944EA450420439060D06A0D
:1004600020F470000C7C641EE4B2234340EA035085
:10047000D06230BD00210160017141718160C160B5
:1004800001210174704721B1826842F0010282604B
:1004900003E0826822F001028260704721B1826825
:1004A00042F48072826003E0826822F4807282608B
:1004B000704710B50023CBB21AB144681C434460A6
:1004C00002E044689C43446010BD816841F008012B
:1004D00081607047014600208A6802F008020AB174
:1004E000012000E000207047816841F00401816034
:1004F0007047014600208A6802F004020AB1012018
:1005000000E00020704721B1826842F4A0028260BE
:1005100003E0826822F4A002826070470146002056
:100520008A6802F480020AB1012000E000207047CE
:1005300010B50A4600210023416821F46041531E92
:1005400041EA4331416010BD21B1426842F400628A
:10055000426003E0426822F4006242607047F0B5F6
:1005600004460D4600200021092D11DDE068A5F1AB
:100570000A0606EB4607072606FA07F18843A5F1A7
:100580000A0606EB460603FA06F10843E0600CE0B3
:10059000206905EB4507072606FA07F1884305EBB6
:1005A000450603FA06F108432061072A0FDA606B5B
:1005B000561E06EB86071F2606FA07F18843561ECD
:1005C00006EB860605FA06F10843606322E00D2A71
:1005D0000FDA206BD61F06EB86071F2606FA07F1F7
:1005E0008843D61F06EB860605FA06F1084320630A
:1005F00010E0E06AA2F10D0606EB86071F2606FA58
:1006000007F18843A2F10D0606EB860605FA06F10E
:100610000843E062F0BD21B1826842F4801282603A
:1006200003E0826822F48012826070470146C86C41
:1006300080B2704766484C300068704721B142680C
:1006400042F48062426003E0426822F480624260C9
:10065000704721B1426842F48052426003E0426830
:1006600022F48052426070470A460021816821F4DA
:10067000E04111438160704721B1826842F4004239
:10068000826003E0826822F400428260704721B1F8
:10069000826842F40212826003E0826822F402124D
:1006A00082607047014600208A6802F400120AB195
:1006B000012000E000207047F0B5044615460020F8
:1006C00000220026092911DDE068A1F10A0707EBE5
:1006D000470C072707FA0CF29043A1F10A0707EB32
:1006E000470703FA07F21043E0600CE0206901EBD2
:1006F000410C072707FA0CF2904301EB410703FA7C
:1007000007F210432061A06BC0F30156EF1C06F105
:10071000010CA7EB0C0707EB870C1F2707FA0CF25D
:100720009043EF1C06F1010CA7EB0C0707EB8707C2
:1007300001FA07F21043A063F0BD10B50A4600218C
:100740000023816B21F44011531E41EA0351816360
:1007500010BD08B5002300930090009B0B4400934C
:10076000009B1A6008BD08B5024600200090009268
:1007700001F12800009B184400900098006880B2A6
:1007800008BD0A4600214168164B194011434160DB
:1007900070474162826270470A460021416821F039
:1007A0001F0111434160704740B109490831096890
:1007B00041F40001064A0832116007E0044908319B
:1007C000096821F40001024A0832116070470000F4
:1007D0000024014000280140003C0140FFFEF0FFE2
:1007E000FDF7F1FFFFFD3FFF0246002013680B40BD
:1007F0000BB1012000E000207047CA43026070473F
:1008000070B502460020002300240B125568CEB2BA
:1008100005EA060415681D4015B10CB1012000E081
:10082000002070BD00220A12D3430360704700000D
:1008300001460020FE4A106800F0380008431060AE
:100840007047FB49096821F00801F94A1160114617
:100850000968014311607047F549096821F01001EA
:10086000F34A116011460968014311607047F1486D
:10087000EF494860F04848607047EE48EC494860EE
:10088000ED4848607047EA48006940F08000E84958
:1008900008617047E648006940F08000E44908615B
:1008A00070470420E249C96801F0010109B1012043
:1008B0000EE0DF49C96801F0040109B1022007E038
:1008C000DB49C96801F0100109B1032000E00420F0
:1008D000704700B502460423FFF7E3FF034603E039
:1008E000FFF7DFFF0346521E012B01D1002AF7D18B
:1008F00002B90523184600BD30B5044604254FF45F
:100900003020FFF7E6FF0546042D17D1C8480069DF
:1009100040F00200C649086108464461006940F0A1
:10092000400008614FF43020FFF7D3FF0546C04870
:10093000006941F6FD710840BD490861284630BD97
:1009400010B504244FF43020FFF7C3FF0446042CF5
:1009500016D1B748006940F00400B549086108465F
:10096000006940F0400008614FF43020FFF7B1FF0C
:100970000446AF48006941F6FB710840AC49086184
:10098000204610BD00B502460423FFF78AFF034648
:1009900003E0FFF786FF0346521E012B01D1002A18
:1009A000F7D102B90523184600BD10B504244FF451
:1009B0003020FFF7E7FF0446042C16D19C4800695D
:1009C00040F004009A4908610846006940F0400080
:1009D00008614FF43020FFF7D5FF044694480069C2
:1009E00041F6FB71084092490861204610BD002085
:1009F0008F49C96901F0020109B1012000E000201E
:100A0000704730B5A5250424FFF7F1FF00B100259C
:100A10004FF43020FFF75DFF0446042C3AD185489F
:100A200083498860844888600846006940F0200057
:100A300008610846006940F0400008614FF430202A
:100A4000FFF747FF0446042C1BD17948006941F6A3
:100A5000DF710840764908610846006940F01000DF
:100A6000086176480580E002FFF733FF0446052C55
:100A700010D06F48006941F6EF7108406C49086179
:100A800008E0052C06D06A48006941F6EF7108407D
:100A900067490861204630BD78B506460C460425F6
:100AA00000200090E802FFF714FF0546042D24D132
:100AB0005F48006940F001005D4908613480E80248
:100AC000FFF707FF0546042D10D1B01C0090200C45
:100AD00000990880E802FFF7FCFE054654480069CB
:100AE00041F6FE7108405249086106E0504800692D
:100AF00041F6FE7108404E490861284678BD70B540
:100B000004460D460426F002FFF7E3FE0646042ED7
:100B100011D14748006940F001004549086125802E
:100B2000F002FFF7D6FE06464148006941F6FE7125
:100B300008403F490861304670BD70B505460E4615
:100B40000424E002FFF7C5FE0446042C17D13948FF
:100B500037498860384888600846006940F01000CE
:100B600008612E80E002FFF7B4FE0446052C06D093
:100B70002F48006941F6EF7108402D490861204671
:100B800070BD2DE9F04304464FF6FF763746B04678
:100B9000B1460425E443E6B2C4F30727C4F307488B
:100BA0004FEA1469E802FFF794FE0546042D49D187
:100BB00020481F498860204888600846006940F046
:100BC00010000861FF2E06D01C4808300680E8029D
:100BD000FFF77FFE0546042D08D1FF2F06D01748EA
:100BE0000A300780E802FFF774FE0546042D0AD19B
:100BF000B8F1FF0F07D011480C30A0F80080E802D0
:100C0000FFF767FE0546042D0AD1B9F1FF0F07D0A3
:100C10000A480E30A0F80090E802FFF75AFE054699
:100C2000052D0FD00248006941F6EF71084007E03A
:100C30000020024023016745AB89EFCD00F8FF1F7C
:100C4000664908612846BDE8F08330B505460424AE
:100C50004FF43020FFF73DFE0446042C41D160489C
:100C60005E4988605F4888600846006940F020005F
:100C700008610846006940F0400008614FF43020E8
:100C8000FFF727FE0446042C22D15448006941F6A0
:100C9000DF710840514908610846006940F01000C2
:100CA00008611DB100205049088002E0A5204E498E
:100CB00008804FF43020FFF70CFE0446052C10D0BE
:100CC0004648006941F6EF7108404449086108E070
:100CD000052C06D04148006941F6DF7108403F49C4
:100CE0000861204630BDF0B505460E46174604247F
:100CF0003B483A4988603B488860E002FFF7E9FDDD
:100D00000446042C19D13548006940F010003349DD
:100D1000086147F0F800304328433349891C0880B4
:100D2000E002FFF7D6FD0446052C06D02B480069EB
:100D300041F6EF710840294908612046F0BD274877
:100D4000C069800870472548006A70470020234921
:100D5000096801F0200109B1012000E0002070477E
:100D600029B11E4A126902431C4B1A6104E01B4A56
:100D700012698243194B1A6170470146002001290C
:100D800008D1164AD26902F001020AB1012008E036
:100D9000002006E0114AD2680A400AB1012000E0B2
:100DA000002070470D49C860704704200B49C9688E
:100DB00001F0010109B101200EE00849C96801F004
:100DC000040109B1022007E00449C96801F01001DB
:100DD00009B1032000E00420704700000020024019
:100DE00023016745AB89EFCD00F8FF1F10B504461E
:100DF000CC48844208D10121042000F04DFB0021A1
:100E0000042000F049FB46E0C748844208D1012194
:100E1000082000F041FB0021082000F03DFB3AE0F3
:100E2000C248844208D10121102000F035FB002186
:100E3000102000F031FB2EE0BD48844208D1012192
:100E4000202000F029FB0021202000F025FB22E0DB
:100E5000B848844208D10121402000F01DFB002148
:100E6000402000F019FB16E0B348844208D101216C
:100E7000802000F011FB0021802000F00DFB0AE033
:100E8000AE48844207D10121801500F005FB002106
:100E9000A01500F001FB10BD10B50121084600F0BF
:100EA000FBFA0021012000F0F7FA10BD2DE9F04116
:100EB000024600250026002000230024002791F888
:100EC00003C00CF00F0591F803C00CF0100CBCF13E
:100ED000000F03D091F802C04CEA050591F800C05C
:100EE000BCF1000F31D0146800202BE04FF0010C52
:100EF0000CFA00F3B1F800C00CEA03069E4220D1C0
:100F000083004FF00F0C0CFA03F7BC4305FA03FC07
:100F10004CEA040491F803C0BCF1280F06D14FF04D
:100F2000010C0CFA00FCC2F814C00AE091F803C0EE
:100F3000BCF1480F05D14FF0010C0CFA00FCC2F8CF
:100F400010C0401C0828D1D31460B1F800C0BCF117
:100F5000FF0F34DD546800202EE000F1080C4FF044
:100F6000010808FA0CF3B1F800C00CEA03069E422F
:100F700021D183004FF00F0C0CFA03F7BC4305FAA4
:100F800003FC4CEA040491F803C0BCF1280F05D11E
:100F900000F1080C08FA0CF8C2F8148091F803C0AC
:100FA000BCF1480F07D100F1080C4FF0010808FA16
:100FB0000CF8C2F81080401C0828CED35460BDE85D
:100FC000F0814FF6FF710180022181700421C17010
:100FD00070470246002093680B400BB1012000E0EF
:100FE000002070470146886880B2704702460020A2
:100FF000D3680B400BB1012000E000207047014690
:10100000C86880B2704701617047416170470AB19A
:10101000016100E041617047C16070474FF4803268
:101020000A438261816182618269826970470246F6
:101030000020434B18684FF68073184040EA0210B6
:1010400008433F4B186070473E49C8617047F0B590
:101050000A46002300240021002500F00046B6F1D6
:10106000004F02D1364EF16901E0354E7168C0F390
:10107000034583B200F44016B6F5401F08D121F0B5
:1010800070612F4E766826F070662D4F7E6012E0FC
:1010900000F48016B6F5801F06D1032606FA05F483
:1010A000A14341F0706106E0460D360103FA06F6F1
:1010B000B14341F0706122B1460D360103FA06F6E4
:1010C000314300F00046B6F1004F02D11C4EF161F1
:1010D00001E01B4E7160F0BD30B500228B071C0F84
:1010E0000F2303FA04F2164B08338C1053F8243004
:1010F0009343134C08348D1044F8253023468C104C
:1011000053F824308C07240F00FA04F423430C4CCA
:1011100008348D1044F8253030BD0A49DC310860B0
:101120007047000000080140000C01400010014021
:101130000014014000180140001C01400020014043
:1011400000000140000020420E49086070470D4930
:10115000486070470B49886070474AF6AA200949E1
:10116000086070474CF6CC4006490860704701465D
:101170000020044AD2680A400AB1012000E00020A1
:101180007047000000300040DF48006840F0010078
:10119000DD49086008464068DC490840DA49486093
:1011A00008460068DA490840D749086008460068E0
:1011B00020F4802008600846406820F4FE00486063
:1011C0004FF41F0088607047CF49096821F48031CF
:1011D000CD4A11601146096821F480211160B0F5F3
:1011E000803F03D0B0F5802F0ED106E0C6490968D4
:1011F00041F48031C44A116007E0C349096841F4F1
:10120000A021C14A116000E000BF00BF704710B5C7
:1012100001460022002300204A11012A02D1BA4CC3
:10122000236806E0022A02D1B74C236A01E0B64CDB
:10123000636A01F01F02012494401C400CB101209C
:1012400000E0002010BD38B50020009000240025EB
:1012500000BF3120FFF7DBFF05460098401C0090DF
:101260000098B0F5A06F01D0002DF2D03120FFF72B
:10127000CEFF08B1012400E00024204638BD01461D
:101280000020A14A106820F0F80040EAC100106078
:101290007047A04908607047024600209A4B586882
:1012A00020F47C1042EA01031843974B58607047C2
:1012B00098490866704701460020934A506820F01C
:1012C00003000843506070478F48406800F00C00EE
:1012D0007047014600208C4A506820F0F000084317
:1012E0005060704701460020874A506820F4E06053
:1012F00008435060704701460020834A506820F43C
:10130000605040EAC1005060704729B17E4A527A6D
:1013100002437D4B5A7204E07B4A527A82437A4BF5
:101320005A7270477B49D8310860704701460020E7
:10133000754A506820F440400843506070470021CF
:10134000714A20321170704A82F82010012802D0B0
:1013500004280AD104E001216B4A2032117005E013
:101360000521694A2032117000E000BF00BF7047BC
:101370006949086070476449096A0143624A116219
:101380007047654944390860704730B50021002234
:10139000002400235C4D6D6805F00C0121B1042987
:1013A00005D0082923D105E05C4D056022E05B4DA6
:1013B00005601FE0544D6D6805F47012524D6D6864
:1013C00005F48034022505EB92421CB9544D554377
:1013D00005600BE04C4D6D6805F400351DB1504DB6
:1013E0005543056002E04D4D5543056002E04B4D0D
:1013F000056000BF00BF444D6D6805F0F0010909AC
:10140000484D6B5C0568DD4045603F4D6D6805F4F7
:10141000E061090A434D6B5C4568DD4085603A4DEB
:101420006D6805F46051C90A3E4D6B5C4568DD404E
:10143000C560354D6D6805F44041890B3A4D6B5CD4
:10144000C568B5FBF3F5056130BD29B12E4A526977
:1014500002432D4B5A6104E02B4A526982432A4BC6
:101460005A61704729B1284A92690243264B9A6112
:1014700004E0254A92698243234B9A61704729B15F
:10148000214AD2690243204BDA6104E01E4AD26944
:1014900082431D4BDA61704729B11B4AD26802436F
:1014A000194BDA6004E0184AD2688243164BDA60BE
:1014B000704729B1144A12690243134B1A6104E0C0
:1014C000114A12698243104B1A6170471249403920
:1014D000086070470F49C86470470B49C87170476E
:1014E0000948406A40F080700749486270470146E9
:1014F0000020054A92680A400AB1012000E000205D
:101500007047014988727047001002400000FFF8E0
:10151000FFFFF6FE000042428004424200127A00C1
:1015200000093D00140000202400002010B50446EE
:10153000BE48844208D101218014FFF7ADFF00218D
:10154000A014FFF7A9FF16E0B948844208D1012191
:101550000014FFF7AEFF00212014FFF7AAFF0AE0F6
:10156000B448844207D10121C013FFF7A2FF002134
:10157000E013FFF79EFF10BD10B50022028802F4B1
:1015800041520B884C8823438C882343CC882343C7
:101590000C8923434C8923438C892343CC892343DF
:1015A0001A430280838B4FF2FF74234083830B8A9C
:1015B000038210BD2DE9F04F85B005460C464FF073
:1015C000000902274FF000084FF0010B0026B24639
:1015D000A88B4FF240010840A88302202884B5F868
:1015E0001C90A068022801D100BF38E0A08810B983
:1015F0004FF0010B01E04FF0020B8D48854200D106
:1016000000E000BF6846FFF7C0FEDDF800A0E088FC
:10161000B0F5007F0AD14FEA1A2000EB80004000AD
:10162000A168B0FBF1F0401D86B20BE04FEA4B1011
:10163000BAFBF0F000EB80004000A168B0FBF1F0D5
:10164000401D86B20A20B6FBF0F606F00108A6EBB4
:101650000800C0F34F074FF6FF7000EA0828022F7A
:1016600001DBFF2F02DD02274FF00008E08840EA8F
:10167000080038432884A088A1890843618808436A
:101680002188084340F4006040EA0909A5F81C904D
:1016900005B0BDE8F08F0021018041808180C180CC
:1016A000018141818181C18107210182704700212F
:1016B000018041808180C18002218160002181817F
:1016C000704721B1028842F04002028004E00288A3
:1016D0004FF6BF731A400280704721B1828B42F4EB
:1016E0008062828304E0828B4FF6FF331A4082834C
:1016F000704730B5002400230C110125A540ABB282
:101700001AB185881D43858002E085889D438580C8
:1017100030BD1AB183880B43838002E083888B43FA
:1017200083807047818170470146888970474FF6F2
:10173000FF62914204D0028842F48072028004E089
:1017400002884FF6FF631A400280704721B18288F9
:1017500042F00402828004E082884FF6FB731A4054
:101760008280704702884FF2FF731A40028002881D
:101770000A4302807047018841F48051018070471C
:1017800021B1028842F40052028004E002884DF642
:10179000FF731A400280704702460020012901D0E1
:1017A000108B00E0908A70470146088A7047B1F5B7
:1017B000804F04D1028842F48042028004E0028813
:1017C0004BF6FF731A4002807047024600201389CF
:1017D0000B400BB1012000E000207047CA4302819A
:1017E0007047F0B50246002000240023002501F0D8
:1017F0000F070126BE40B4B20B1101269E40B3B2C2
:10180000968806EA03051689264016B10DB1012017
:1018100000E00020F0BD10B5002201F00F0401230C
:10182000A3409AB2D343038110BD000000300140B1
:1018300000380040003C004010B50446FB4884429C
:1018400009D101218803FFF727FE00214FF48040D2
:10185000FFF722FE32E0F648844209D10121480414
:10186000FFF727FE00214FF40030FFF722FE25E0AE
:10187000F048844209D101218804FFF71AFE0021B3
:101880004FF48020FFF715FE18E0EB48844209D1A1
:101890000121C804FFF70DFE00214FF40020FFF7DF
:1018A00008FE0BE0E548844208D101210805FFF756
:1018B00000FE00214FF48010FFF7FBFD10BD2DE965
:1018C000F04786B005460E460024A24600BFA1465A
:1018D0000027B08900B100BF2F462C8A4CF6FF705C
:1018E0000440F08804432C82AC894EF6F310044087
:1018F000B08831890843718908430443AC81AC8ABC
:101900004FF6FF400440B0890443AC8201A8FFF7C2
:101910003CFDC648874202D1DDF810A001E0DDF8A9
:101920000CA0A88900F4004040B10AEBCA0000EB0B
:101930000A1031684900B0FBF1F807E00AEBCA0071
:1019400000EB0A1031688900B0FBF1F86420B8FBA5
:10195000F0F004012009642101FB1089A88900F43A
:10196000004040B1322000EBC900B0FBF1F000F0C4
:101970000700044308E0322000EB09106421B0FBAB
:10198000F1F000F00F0004432C8106B0BDE8F087B1
:101990004FF41651016000218180C18001810C212A
:1019A000418100218181704710B502460020108AD4
:1019B0004FF2FF0318400B884C8823438C88234345
:1019C000CC8823431843108210BD00210180418040
:1019D0008180C180704721B1828942F400528281A6
:1019E00004E082894DF6FF731A4082817047F0B59A
:1019F0000346002400260025002040F66A17B9425D
:101A000000D100BF1846C1F3421401F01F060127A0
:101A100007FA06F5012C01D10C3004E0022C01D1AB
:101A2000103000E014301AB107682F43076002E05D
:101A30000768AF430760F0BD1AB1838A0B43838206
:101A400002E0838A8B4383827047028A4FF6F073E9
:101A50001A400282028A0A430282704782894FF248
:101A6000FF731A40828182890A438281704721B1C3
:101A7000828942F00202828104E082894FF6FD737E
:101A80001A4082817047028A4FF6DF731A40028241
:101A9000028A0A430282704721B1028A42F48042DC
:101AA000028204E0028A4BF6FF731A4002827047FA
:101AB000C1F308028280704701468888C0F308009D
:101AC0007047818941F0010181817047028BD2B258
:101AD0000283028B42EA012202837047028B02F4E6
:101AE0007F420283028B0A430283704721B1828ABC
:101AF00042F02002828204E0828A4FF6DF731A40AD
:101B00008282704721B1828A42F01002828204E010
:101B1000828A4FF6EF731A408282704721B1828A1F
:101B200042F00802828204E0828A4FF6F7731A407C
:101B30008282704721B1828942F40042828103E0AF
:101B40008289C2F30E028281704721B1828A42F4F7
:101B50000062828204E0828A4FF2FF731A4082821E
:101B60007047828A4FF6FB731A408282828A0A4348
:101B70008282704721B1828A42F00202828204E0AE
:101B8000828A4FF6FD731A40828270470246002017
:101B9000B1F5007F00D100BF13880B400BB10120CD
:101BA00000E00020704701F40072B2F5007F00D120
:101BB00000BFCA430280704770B50246002400236C
:101BC0000025002040F66A16B14200D100BFC1F3E3
:101BD000421501F01F03012606FA03F3012D02D17D
:101BE0009689334006E0022D02D1168A334001E087
:101BF000968A33400C12012606FA04F41688344003
:101C000013B10CB1012000E0002070BD10B500221E
:101C1000002340F66A14A14200D100BF0A12012439
:101C20009440A3B2DC43048010BD000000380140A2
:101C30000044004000480040004C0040005000407C
:101C4000642000F088FA00F05FFA02F0EBFF06F083
:101C5000B1FC06F03BFC06F0E3FC40F271210620EB
:101C600006F03AFE00F09EFBBE490860096808686D
:101C70008047BC4909688868804706F023FD03F067
:101C8000D8F905F009FC6CE106F038FE4FF400418C
:101C9000B54800F04BFAB54AB549B64805F046FCE0
:101CA000B549B448006807F0B7F906D20120B34936
:101CB00008700020B249087011E0B249AD480068D0
:101CC00007F0B4F906D20120AD4908700020AB49F5
:101CD000087004E00020A9490870A9490870032190
:101CE000012006F04CFC044607F0C7F8A64908603E
:101CF0000846006807F049F906464FF06632A34BE4
:101D000006F0D1FF044607F06BF9A14908600846C8
:101D10000168A04806F0B0FE9F4908609D499E48B2
:101D2000006807F083F903D201209C49087008E09D
:101D30009B499948006807F06FF902D20020974943
:101D400008708849096848698047022830D14103F2
:101D5000854800F0EBF9834800689249C2689248D0
:101D6000904791480078914908708F4840784870B2
:101D70008D48807888708C48C078C87008460068A4
:101D80008B49086000208B49087009E000208649D3
:101D9000884A1278885487480078401C8549087022
:101DA000844800780528F1DB6E4909688868804717
:101DB0007F4801686F48006806F058FE7E49086059
:101DC0000846006807F0E1F821F00041044607F0FA
:101DD00007F97A4908607A480078012845D14FF020
:101DE0007E517548006807F021F914D275480078D3
:101DF000012804D106F007FC642000F0ACF90120B2
:101E0000714908700020714908706E4908700120FE
:101E10006F49087029E06F496748006807F0FCF8CF
:101E200014D26B480078012804D106F0ECFB642042
:101E300000F091F90120654908700020624908709E
:101E40006349087001205F4908700EE05B48006834
:101E500007F09BF80446604A604B07F0A9F804D2EB
:101E600000205949087059490870012006F0E9FB23
:101E70005B49087008460078002843D0084600787F
:101E8000012802D002283CD11DE04FF480413648A1
:101E900000F04CF94A480078012804D106F0B3FB61
:101EA000642000F058F901204E490870002046498E
:101EB000087046490870424908700120414908707D
:101EC000434908701DE04FF48041274800F02EF987
:101ED0003B480078012804D106F095FB642000F00F
:101EE0003AF9012040490870002037490870374905
:101EF000087033490870012032490870344908706D
:101F000000BF0AE0002037490870374908700120F7
:101F10002B4908700A2006F012FC20480078F0B126
:101F200029480078012803D02E480078012805D1DF
:101F30001248007810B906F056FB12E023480078EA
:101F4000012803D028480078012805D10C480078E2
:101F500010B906F050FB04E006F055FB01E006F076
:101F600052FB91E630000020000C014040000020B0
:101F70003C000020380000200000C841650000201F
:101F800066000020000034425000002066664A3F90
:101F90005400002000003041580000205D00002067
:101FA00000001041280000202A00002068000020C6
:101FB0004400002034000020480000204C00002095
:101FC00062000020630000205E0000205F0000200F
:101FD00064000020000080BF9A9999999999C93F9F
:101FE0005C000020600000206100002000BFFEE7D0
:101FF000704700BFFEE700BFFEE700BFFEE700BF7F
:10200000FEE77047704770470A480068401C09495E
:102010000860704710B540F225510748FFF7CCFD26
:1020200038B10548FFF748FDC4B2214603A007F0C8
:10203000FFF910BD1001002000440040256300009E
:1020400008B501210820FFF70DFA4FF48040ADF8E4
:10205000000003208DF8020010208DF8030069466F
:102060004548FEF723FF4FF480414348FEF7CDFF7C
:102070004FF40040ADF8000003208DF8020010205E
:102080008DF8030069463C48FEF710FF4FF400410D
:102090003948FEF7BAFF08BD10B54FF4A060FEF74F
:1020A00031F910BD10B5FFF76FF84FF48030FFF72E
:1020B0008BF8FFF7C8F80446012C24D11020FEF756
:1020C000CBFB0220FEF7B4FB0020FFF702F9002053
:1020D000FFF711F9A002FFF705F94FF4E011200412
:1020E000FFF7DAF80120FFF7E3F800BF3920FFF728
:1020F0008EF80028FAD00220FFF7DDF800BFFFF7C6
:10210000E3F80828FBD110BD10B5FFF7CBFFFFF7B0
:10211000C3FF00F035F801210846FFF7A3F90121BC
:102120001648FEF794FFFFF78BFF10BDC2684A40C8
:10213000C260704709E0082100BF0A1EA1F1010139
:10214000FBD100BF00BF00BF00BF021EA0F1010312
:1021500098B2F0D17047002107E041F60E7100BF40
:102160000A1EA1F1010399B2FAD1021EA0F10103E6
:1021700098B2F2D170470000000C0140000230001C
:1021800000B587B0012144F20400FFF76BF94FF46A
:102190000070ADF8180018208DF81B0003208DF892
:1021A0001A0006A97048FEF781FE4FF48060ADF872
:1021B000180004208DF81B0006A96B48FEF776FE78
:1021C00025208DF8140000208DF815008DF81600DC
:1021D00001208DF8170005A8FEF799F84FF4E130BB
:1021E00001900020ADF80800ADF80A00ADF80C0031
:1021F000ADF810000C20ADF80E0001A95B48FFF708
:102200005EFB012240F225515848FFF7F0FB012107
:102210005648FFF7E0FB56A007F00AF907B000BDEB
:1022200000B587B001210420FFF71CF90121480403
:10223000FFF725F90420ADF8180018208DF81B00D1
:1022400003208DF81A0006A94748FEF72FFE082044
:10225000ADF8180004208DF81B0006A94248FEF7CF
:1022600025FE26208DF8140000208DF815008DF82D
:10227000160001208DF8170005A8FEF748F84FF466
:10228000E13001900020ADF80800ADF80A00ADF88B
:102290000C00ADF810000C20ADF80E0001A93A4872
:1022A000FFF70DFB012240F225513748FFF79FFB56
:1022B00001213548FFF78FFB34A007F0B9F807B0CC
:1022C00000BD70B504460D460BE021782748FFF7A6
:1022D000EFFB00BF40212548FFF758FC0028F9D04C
:1022E000641C281EA5F10101CDB2EED170BDC0F372
:1022F00008011E4A121D118000BF1C49098801F007
:1023000040010029F9D0704710B50446234603E088
:102310001878FFF7ECFF5B1C18780028F8D110BD87
:1023200070B504460D4629462046FFF7C1FB00BFA5
:1023300080212046FFF72AFC0028F9D000BF402169
:102340002046FFF723FC0028F9D070BD10B50446E5
:1023500000BF20210548FFF719FC0028F9D00348E9
:10236000FFF7AAFB10BD0000000801400038014043
:102370000D0A555341525431206973204F4B20624E
:10238000792052580D0A0000004400400D0A20B484
:10239000AEBFDA32B3F5CABCBBAFCDEAB3C9200DCC
:1023A0000A000000074808490860084848600848D3
:1023B00088600848C86008480861084848610846BD
:1023C00070470000B92400085C0100208B2400083D
:1023D000A9250008C1250008E12500082F260008CE
:1023E00010B5044697480078A04200D110BD95482A
:1023F000047095480470007801282BD1002001F06A
:102400001BFB92480068407800F07F0040F080009D
:102410008E49096848708D4800684178012002F0B3
:1024200005FD012001F008FB00208849096881F8BA
:102430003F008649096881F840000222834801680C
:102440003F31402002F0D4FC6F228149012002F08C
:10245000F5FC18E0002001F0EFFA7C4800684078B5
:1024600000F07F0079490968487078480068417831
:10247000012002F0DBFC012001F0DEFA6F2274493A
:10248000012002F0DBFC00BFB0E710B5012002F034
:1024900085FC7048046800BF6E480068001BFBD0D4
:1024A000002002F07BFC6B48046800BF69480068AC
:1024B000001B0628FAD310BD08B56548401E6649C2
:1024C00008606249086002F00FFCFFF7DEFF694612
:1024D000062002F0D2FC05E060A006F0A9FF64200F
:1024E000FFF739FE9DF800006C28F5D10120564910
:1024F000087008460078FFF773FF01F0D1FA08BDB5
:1025000051480078704710B504464F48007818B914
:10251000204600F0ABF802E0204601F08DFA10BD35
:1025200010B54948007810B900F08BF910BD01F0E2
:1025300029FBFBE710B54448007810B900F0E0F93A
:1025400010BD01F038FBFBE710B53F48007810B92B
:1025500000F0CAF910BD01F022FBFBE710B53A48C4
:10256000007810B900F0E1F910BD01F05AFBFBE76B
:1025700010B53548007808B900BFFEE701F054FBFC
:1025800010BD10B53048007810B900F0D1F910BD79
:1025900001F04EFBFBE710B52B48007810B900F0B6
:1025A000CAF910BD00BFFEE710B52748007818B97A
:1025B000012000F0C3F902E0012001F03CFB10BD56
:1025C00070B504460D462048007820B929462046BB
:1025D00000F0BCF903E02946204601F034FB70BD51
:1025E00070B504460D461848007820B929462046A3
:1025F00000F0BBF903E02946204601F033FB70BD33
:1026000010B51148007810B900F0FFF910BD01F0C5
:102610003FFBFBE710B504460B48007818B920468D
:1026200000F08CF902E0204601F005FB10BD10B56A
:102630000548007810B900F0EBF910BD01F02BFB54
:10264000FBE700006D0000206C000020EC00002083
:1026500075010020100100208C0000204861726488
:102660002053504920457272210D0A0070B504466E
:102670000025F7480068407820F0F800F549087018
:102680000846007884421CD0032C01D1012500E0CB
:102690000025F1480078854204D0EF4805702846AF
:1026A00002F030FCEA480068407800F0F80020436F
:1026B000E74909684870E64800684178012002F05F
:1026C000B5FB70BD10B5E24801684231422002F00E
:1026D000D4FB10BD10B50020E0490870FFF7F2FFF1
:1026E0006F22DF49012002F0A9FB0020D8490968C8
:1026F0004870D74800684178012002F097FB2020FD
:10270000D34909688872D2480068817A0A2002F0A9
:102710008DFB2020CE4909680873CD480068017BF5
:102720000C2002F083FBCF48407E012804D11E20FC
:10273000C7490968487303E00E20C5490968487312
:102740000820C349096881F82600AA20C049096801
:10275000C877FF20BE49096808749320BC490968FE
:1027600081F827006920BA49096881F8280081208A
:10277000B749096881F829007E20B549096881F8C0
:102780002A009620B249096881F82B00B548007EDE
:10279000802141EA0010AE49096881F8300000F05C
:1027A000ACFFB048807EAA49096881F832006F22E8
:1027B000AB49012002F01CFBAA49086800F030FC7C
:1027C000A849486800F0CCFCA649886800F012FDD2
:1027D000A448002102699E480068123000F0F5FE0E
:1027E000A048002142699A480068133000F0EDFECD
:1027F000002001F071F89B4800689B4988420DD980
:10280000802001F015F8012000F0D5FF1420954933
:10281000087391F90C0000F044FD0CE0002001F079
:1028200007F8002000F0C7FF0E208E49087391F9C9
:102830000C0000F036FD0120FFF718FF00F03EFC11
:1028400010BD10B582480168491C012002F015FB3B
:102850007F480068407820F0F80010BD2DE9F0476F
:1028600002227B4801681D311D2002F0E7FA7849F9
:102870000968897F764A1268527F41EA022006F091
:1028800001FB804606F049FB824606F0FBFA06464D
:102890000022764B06F007FA044606F03EFBBDE840
:1028A000F0872DE9F0470222694801681B311B209F
:1028B00002F0C4FA66490968097F654A1268D27E47
:1028C00041EA022006F0DEFA804606F026FB824648
:1028D00006F0D8FA06460022644B06F0E4F90446F6
:1028E00006F01BFBBDE8F08710B5594801680C31B4
:1028F0000C2002F0C2FA56480068007B400910BD67
:1029000070B5534801681131112002F0B6FA5049F0
:102910000968487C06F0C7FA044600224FF080435D
:1029200006F033FA81F0004170BD514800787047DD
:10293000504903C9704750480068704747490870BC
:10294000704700B50120FFF7F9FF00BD70B50546DF
:102950000C464A4800882080002048490880228888
:102960004749284605F0FFFF70BD70B504460D4687
:102970004448058002882146414805F0F4FF0720BD
:102980003649087070BD30B53148006890F82700AE
:1029900000F00700421C2E48006890F83000C30980
:1029A0002B48006890F8300000F0060008B10120C4
:1029B00000E0002004462648006890F832102448C1
:1029C000006890F8300000F01000102801D10220BB
:1029D00000E000200546D01820440844284480B276
:1029E00030BD1B48006890F82600194B1B6893F80F
:1029F000253040EA03211648006890F8270000F0CF
:102A00000700421C881880B270471448007870474D
:102A10002DE9F04F8BB001200990104800780C2868
:102A20007ED2DFE800F00607A3FDFCFBFAF9F8F719
:102A3000F6F5DFE20648006890F8300000F010007C
:102A4000102821D14C200249096881F8400020E07B
:102A50008C000020C8000020C90000209100002048
:102A60007501002070000020008F423380844E40AA
:102A7000B4000020A8000020B0000020A00000202A
:102A8000E4010020C00000200C20FE49096881F804
:102A90004000E120FB49096881F841000222F94821
:102AA00001684031402002F0A3F90520FFF7DEFD68
:102AB0004FF48071F44805F06FFFF449486806F060
:102AC000F2F9CDE90201FFF75EFF019006F0EBF9A4
:102AD00080460022EE4B06F0E6F80646DDE90223CA
:102AE00006F053F90022EB4BCDE9040106F0DBF8C8
:102AF000CDE9060107F074FF089006F0C3F904461B
:102B00000022E54B06F028F8824606F025FA80B24E
:102B1000E24908600846006800EB5000086000E0E9
:102B200067E208460068DE490860DE480068DE4962
:102B30000860DE490860A020D249096881F83500A4
:102B4000D048006890F83510352002F06FF9002069
:102B5000D7490870D7490870D7490870D749087015
:102B6000D74908800220D749087043E202F0BCF937
:102B7000012809D1CE48007830B90120CC4908702D
:102B8000C8480068C949086002F0A0F901281ED1B0
:102B9000C748007801281AD1C6480078B8B9012082
:102BA000C4490870FFF7ACFEC74A03C2FFF779FEBD
:102BB000C6490860FFF798FEC5490870B948006823
:102BC000B9490860B94908600320BE490870B9488E
:102BD0000078B8B9B6480078012813D1B148006828
:102BE000B2490968401AAE49096888420AD90120E9
:102BF000B4490870A3480068407B40F020010D20D4
:102C000002F014F9AB480078D8B9A948007808E078
:102C1000E9E1E2E195E160E10FE1FBE0E7E0DDE021
:102C200010E070B9A448007858B99E4800689E49E1
:102C30000968401A99490968884202D90520A149C2
:102C40000870D7E19E480088B0F5807F03DD06203C
:102C50009C490870CEE102F032F9012853D198481E
:102C60000088A8B99548007890B98648006890F81F
:102C7000300000F08000802804D10121904802F04B
:102C80000EF905E07F48006890F832008C49088012
:102C90008B48008889490978401A7A49096891F86F
:102CA000351001F03F01884217DD764A126892F82C
:102CB000352002F03F01744A804B1B78D01802F097
:102CC000EEF87048006890F8350000F03F007B494E
:102CD000097808447949087015E0794A1278774BE9
:102CE0001B78D21AD1B2684A744B1B78D01802F004
:102CF000D6F87348007871490978401A6F49097805
:102D000008446E49087002F0D3F8012856D165488E
:102D10000068654908606A48008890BB6748007889
:102D200078BB5848006890F8300000F08000802898
:102D300004D10121624802F0B2F805E05148006870
:102D400090F832005E4908805D4A12785B4B1B7830
:102D5000D21AD1B24C4A594B1B78D01802F09FF8C6
:102D60005748007855490978401A54490978084469
:102D700052490870012050490870042051490870D8
:102D80001CE0FFE74E4A12784C4B1B78D21AD1B2A6
:102D90003D4A4A4B1B78D01802F081F84848007829
:102DA00046490978401A454909780844434908705A
:102DB0000120414908700420424908703E480078CB
:102DC00058B93848006838490968401A33490968D1
:102DD000884202D905203B4908700BE100203749A1
:102DE00008700120374908700220099002E1002094
:102DF000324908703249088022480068407B40F020
:102E000020010D2002F012F801202E490870032045
:102E10000990EFE0002029490870294908801948E5
:102E20000068407B40F020010D2001F0FFFF0120F1
:102E30002449087006200990DCE001201149096846
:102E400081F8400020200F49096881F841000222E2
:102E50000C4801684031402001F0CAFF9820094920
:102E6000096881F835000748006890F8351035206A
:102E700001F0DCFF0320FFF7F9FB0820114908707F
:102E8000002027E08C000020E401002070000020DA
:102E90000000204000408F400000F03F94000020E0
:102EA0009800002010010020B8000020BC00002085
:102EB0009C0000209D0000209E000020A200002019
:102EC000A000002091000020A8000020B0000020F9
:102ED000B40000204A4908708CE001F0FEFF012890
:102EE0002ED14848006890F8300000F0800080281B
:102EF00003D10121444801F0C9FF4348008800285C
:102F000008DD41480088402804DC3F4800783F49FC
:102F1000087002E020203D4908703C4801783C4898
:102F200001F0B4FF3648007838490978084434493C
:102F30000870384800683849086009203749087027
:102F400058E001F0BCFF70BB2F4800882C4909787D
:102F5000401A2E49097888420FDD2D49284A1278F7
:102F600088182A49097801F091FF254800782749F7
:102F7000097808442249087015E0234A1278204B4A
:102F80001B78D21AD1B2224A1D4B1B78D01801F0FF
:102F90007DFF1D4800781A490978401A18490978B8
:102FA00008441749087001F083FF012809D1194826
:102FB0000068194908600A20184908700120FFF7C5
:102FC00055FB1448006814490968401AB0F57A7F27
:102FD00002D90B20114908700CE000200F4908703D
:102FE0000420099006E000200C4908700520099093
:102FF00000E000BF00BF09980BB0BDE8F08F0000F3
:10300000A30000208C000020C000002090000020C1
:10301000E401002010010020C400002091000020E5
:103020002DE9F0410446FB480460204605F03BFFD3
:1030300005460022F84B05F0A8FE074605F08CFF78
:103040000446200CF54909688871200AF34909688B
:10305000C871F24909680C720322F0480168891DA1
:10306000062001F0C5FEBDE8F0812DE9F041032204
:10307000EA480168891D062001F0E0FEE748006883
:1030800080790004E5490968C97940EA0120E349EB
:103090000968097A0843DF490860086805F003FFFA
:1030A00006460022DC4B05F0FEFD044605F054FF09
:1030B000D849086008460068BDE8F08138B569461F
:1030C000092001F0DAFEFFF7D0FF04460020D349C3
:1030D00009684872D1480068417A092001F0A6FECB
:1030E000CF48FFF79DFFCD4801683B313B2001F001
:1030F000C4FECA48006890F83B0000F0BF0040F0F2
:103100004000C649096881F83B00C448006890F84F
:103110003B103B2001F08AFEC04801683B313B2058
:1031200001F0ABFE05E0BD4801683B313B2001F0FA
:10313000A4FEBA48006890F83B0000F02000202868
:10314000F1D09DF80000B54909684872B34800689D
:10315000417A092001F06AFE2046FFF761FF38BD81
:103160002DE9F0410446AB484460204605F09BFE43
:1031700005462A460B460020AA4905F006FE0746EA
:1031800005F0EAFE84B2200AA44909688870A349C0
:103190000968CC700222A1480168891C104601F020
:1031A00027FEBDE8F0812DE9F04102229B4801682D
:1031B000891C104601F042FE98480068C078974983
:1031C0000968897840EA012092494860486805F01A
:1031D0006AFE064632460B460020924905F0D5FDB0
:1031E000044605F0B9FE80B28A4948600846406846
:1031F000BDE8F0812DE9F0410446864884608748A7
:103200000168091D042001F038FE204605F04BFE40
:1032100005460022804B05F0B8FD074605F09CFEF0
:1032200084B27E480068007900F0C000210A21F0D5
:10323000C0010843794909680871784909684C71E7
:10324000022276480168091D042001F0D1FDBDE885
:10325000F0812DE9F041022270480168091D042027
:1032600001F0ECFD6D48006800796FF0C00101EAE3
:1032700000206A4909684979084366498860886876
:1032800005F011FE06460022634B05F00CFD0446D6
:1032900005F062FE80B25F49886008468068BDE83C
:1032A000F08110B504465D4801680931092001F03C
:1032B000E4FD5A4801684D314D2001F0DEFD5748CC
:1032C0000068407A00F08000802841D153480068AF
:1032D00090F84D0000F0870087281CD1052C00DAFB
:1032E0000524142C00DD14244C480068407A00F0BA
:1032F0008F0040F0700049490968487247480068EB
:10330000407A00F0F000611F01F00F0108434349CB
:10331000096848723AE0022C00DA0224112C00DD20
:1033200011243E480068407A00F08F0040F07000A1
:103330003A490968487239480068407A00F0F0005C
:10334000A11E01F00F0108433449096848721DE0CD
:10335000B4F1FF3F01DA4FF0FF340E2C00DD0E24F4
:103360002E480068407A00F08F0040F070002B4932
:103370000968487229480068407A00F0F000611C32
:1033800001F00F0108432549096848722348006885
:10339000417A092001F04AFD1E48047310BD10B5A2
:1033A0001E4801680931092001F067FD1B480168CA
:1033B0004D314D2001F061FD18480068407A00F061
:1033C0008000802819D11548006890F84D0000F061
:1033D0000700072808D111480068407A20F0F00063
:1033E000401D0C49087310E00C480068407A20F03A
:1033F000F000801C0749087307E008480068407A1D
:1034000020F0F000401E03490873024890F90C00B8
:1034100010BD00007000002080844E408C00002011
:10342000008F423380847E412DE9FF5F83468A46C8
:10343000002018BB0AF1020005F024FD06463246C2
:103440000B4600204FF0804106F0DEFDCDE9000183
:10345000584605F028FD8046DDE9002305F023FCF1
:1034600002460B46CDE902010020FD4905F08DFC26
:10347000044605F071FD04B0BDE8F09F0AF10300B9
:1034800005F000FD02460B46CDE9000100204FF09B
:10349000804106F0B9FDCDE90201584605F003FD73
:1034A0000646DDE9022305F0FEFB044622460B46F4
:1034B0000020EB4905F069FC804605F04DFDDAE798
:1034C0002DE9F74F88B08A4693460024A14600BFF5
:1034D0000027DFF8908300BF72E04FF010096AE028
:1034E000002008BBA01C05F0CDFC02460B46CDE930
:1034F000000100204FF0804106F086FDCDE9040177
:10350000484605F0D0FCCDE90201DDE9042305F0D1
:10351000CAFB02460B46CDE906010020D04905F062
:1035200034FC05460E4620E0E01C05F0ABFC0246EC
:103530000B46CDE9000100204FF0804106F064FD0C
:10354000CDE90401484605F0AEFCCDE90201DDE914
:10355000042305F0A8FB02460B46CDE90601002036
:10356000BF4905F012FC05460E46089805F09BFC85
:103570002A463346CDE9040105F092FB21F00041D3
:103580003A464346CDE9060105F012FD0FD20898F0
:1035900005F089FC2A463346CDE9060105F080FB9B
:1035A00021F0004807468AF800908BF8004009F1A6
:1035B000040000F0FF09B9F1180F91DD601CC4B2DE
:1035C000082C8ADB0BB0BDE8F08F7CB504460E46B4
:1035D0001546002001900090A348006812308442F4
:1035E00003D106F06000207001E0002020706A46E0
:1035F00001A92846FFF764FF9DF80400102804D0B5
:1036000014280AD018281CD111E020789DF8001049
:1036100001F007010843207014E020789DF80010A5
:1036200001F0070141F00801084320700AE020780A
:103630009DF8001001F0070141F0100108432070CF
:1036400000E000BF00BF884800681230844206D105
:103650002178122001F0EAFB8448056105E0217819
:10366000132001F0E3FB814845617CBD70B5044641
:10367000002500262078C0F3C10020B1012804D025
:10368000022806D103E0102604E0142602E01826E2
:1036900000E000BF00BF207800F007013046FFF7D0
:1036A000C3FE0546704800681230844203D12846A4
:1036B0006E490D6170BD28466C494D61FAE710B541
:1036C0000446694801683031302001F0D6FB664875
:1036D000006890F8300000F0EF0040EA0410624902
:1036E000096881F830006048006890F83010302098
:1036F00001F09CFB5D48047610BD10B55A48016886
:103700003031302001F0B9FB5748006890F83000A4
:10371000C0F30010554908760846007E10BD10B56C
:103720000446514801680D310D2001F0A6FB4E48BA
:103730000068407B00F0EF0040EA04104A49096845
:10374000487349480068417B0D2001F06FFB4748F2
:10375000447610BD10B5444801680D310D2001F0CC
:103760008CFB41480068407BC0F300103F4948761D
:103770000846407E10BD10B504463B48006880F8FE
:1037800032403948006890F83210322001F04EFB88
:103790003648847610BD10B5334801683231322086
:1037A00001F06BFB3048006890F832002F498876B2
:1037B0000846807E10BD10B504462B4801684D3187
:1037C0004D2001F05AFB284801680931092001F019
:1037D00054FB25480068407A00F08000802807D11B
:1037E000012C0AD187202049096881F84D0004E0A6
:1037F00084201D49096881F84D001B48006890F835
:103800004D104D2001F012FB10BD10B51648016897
:103810004D314D2001F031FB1348006890F84D0008
:1038200000F00700072801D1012010BD0020FCE7AF
:1038300010B504460C4801680931092001F01DFB50
:1038400009480068407A00F07F0020430649096873
:10385000487205480068417A092001F0E7FA10BD76
:1038600080847E41D01263418C00002070000020D3
:1038700010B56F4801680931092001F0FEFA6C4863
:103880000068407A20F07F0010BD10B504466848FB
:1038900001680A310A2001F0F0FA65480068807A70
:1038A00000F0F00024F0F0010843614909688872D3
:1038B0005F480068817A0A2001F0B8FA10BD10B59F
:1038C0005B4801680A310A2001F0D7FA58480068BD
:1038D000807A20F0F00010BD10B50446544801680D
:1038E0000E310E2001F0C9FA002C04DA1F2020EA64
:1038F0000404641C64424E480068807B04F01F018D
:1039000040EAC1004A490968887349480068817BD8
:103910000E2001F08BFA10BD10B5454801680E313C
:103920000E2001F0AAFA42480068807BC41004F01F
:103930001000102804D11F2020EA0404641C6442F3
:10394000204610BD70B50024394801683B313B204A
:1039500001F093FA3648006890F83B0000F0FE0052
:103960003349096881F83B003148006890F83B1002
:103970003B2001F05BFA2E480168491C012001F050
:103980007CFA2B480068457804202949096848706A
:10399000274800684178012001F048FA2548066868
:1039A00000BF24480068801BFBD0214801683B31E0
:1039B0003B2001F062FA1E48006890F83B0000F0DE
:1039C000FE00401C1A49096881F83B00184800684D
:1039D00090F83B103B2001F029FA154801683C3172
:1039E0003C2001F04AFA1248006890F83C0000F0D0
:1039F0007F040F48006890F83C0000F080008028A9
:103A000001D1604244B22946012001F00FFA20465C
:103A100070BD10B50446FFF795FF201A40B210BDE7
:103A200010B50446FFF78EFF204440B210BD0000E1
:103A30008C0000201001002070B504460025FC48D1
:103A40000068407820F0F800FA49087008460078CD
:103A500084421CD0032C01D1012500E00025F6484A
:103A60000078854204D0F4480570284601F04AFAEF
:103A7000EF480068407800F0F8002043EC490968FE
:103A80004870EB4800684178012001F0CFF970BD23
:103A900010B5E74801684131422001F0EEF910BD50
:103AA00010B50020E5490870FFF7F2FF6F22E449E6
:103AB000012001F0C3F92020DD49096808736F2255
:103AC000DF49012001F094F9DE49086800F0B0FCFC
:103AD000DC49887900F0F6FDDA49C87900F02BFE60
:103AE000D849087A00F054FED649487900F0A6FD7E
:103AF000D449487A00F0B0FE40F2FF3000F0B8FF41
:103B0000D049087E00F00BFF012000F0E5FFCD4812
:103B10000068CD4988420DD9802000F05DFF01206A
:103B200000F01DFF1420C749087191F9040000F04E
:103B3000CDFC0CE0002000F04FFF002000F00FFF54
:103B40000E20C049087191F9040000F0BFFC01206B
:103B5000FFF772FF10BD10B5012001F01FF9BB483F
:103B6000046800BFB9480068001BFBD0002001F0CA
:103B700015F9B648046800BFB4480068001B062861
:103B8000FAD310BD10B5AA480168491C012001F004
:103B900074F9A7480068407820F0F80010BD10B50F
:103BA000A34801680C310C2001F067F9A0480068B7
:103BB000007B400910BD2DE9F0419D4801681B3193
:103BC0001B2001F05AF99F480068A149884214D28D
:103BD00097490968C87E05F066F904460D4699487C
:103BE00040799C4901EBC000D0E900633246204691
:103BF000294604F0B1FFBDE8F0818D490968C87E0F
:103C000005F051F904460D468E484079924901EB82
:103C1000C000D0E9006332462046294604F09CFFEC
:103C2000E9E78E48007870478D4890F900007047AA
:103C30008C4903C9704781490870704700B501205D
:103C4000FFF7F9FF00BD70B505460C4686480088B1
:103C5000208000208449088022888449284604F076
:103C600082FE70BD70B504460D467648C07A10B924
:103C70007F48058002E0FF207D4908807C4802885B
:103C800021467A4804F06FFE05206C49087070BD2B
:103C90006A48007870472DE9FE4F0120029067487E
:103CA00000780B2877D2DFE800F0060A77FDFCFBEE
:103CB000FAF976F8F7006FA005F0BAFB84E301206B
:103CC000FFF7BAFE9D205A490968487458480068B1
:103CD000417C112001F0AAF85A48C07A012816D177
:103CE0005848007B5249096881F82400504801680F
:103CF0001C311C2001F0C1F84D490968097F01F011
:103D00003F01624A52F8210000F092FB04E0FF20DC
:103D10004749096881F824004548006890F8241054
:103D2000242001F083F800204149096881F83F0010
:103D30003F49096881F8400002223D4801683F314F
:103D4000402001F055F83F48807A012803D1062031
:103D5000FFF772FE0EE036480068C07B3449096800
:103D6000487333480068417B0D2001F05FF805205F
:103D7000FFF762FE4FF480713C4804F00DFE3148BD
:103D800040694349086031480068424908600220A0
:103D90002A49087018E316E301F08AF801281ED1B9
:103DA0002A4800683B4908602648C07A01280FD19C
:103DB0001F4801681C311C2001F05FF81C4909688C
:103DC000097F01F03F01314A52F8210000F030FB39
:103DD0004021122001F02AF803201849087001F050
:103DE00075F801281FD1194800682A49086015484C
:103DF000C07A01280FD10E4801681C311C2001F047
:103E00003CF80B490968097F01F03F011F4A52F84D
:103E1000210000F00DFB0221122001F007F8FFF74E
:103E2000BEFE0E4908700748807A012847D13AE063
:103E3000EC0000200E0100200F010020F000002007
:103E400075010020D00000200057A61610010020A8
:103E5000008F423310AB000860AB00080001002067
:103E6000F4000020F8000020F2000020E40200200E
:103E70000C0100203D3D3D52464C525F535441548D
:103E8000455F49444C453D3D3D0A0000B0AB00084C
:103E9000080100200401002076E24EE241E2DBE16D
:103EA00060E159E10CE0FE480068FE490968401AEB
:103EB000FD490968884202D90420FC49087083E260
:103EC000FB4801681231122000F0D7FFF848006863
:103ED000807C00F0200020280ED12021122000F04C
:103EE000A5FFF448807A012802D1F049087002E069
:103EF0000220EE49087067E201A9192000F0BDFF19
:103F00009DF8040000F0800068B19DF80400C043F3
:103F1000401CC0F38500E84908700846007840421C
:103F200040B2087004E09DF804008008E24908707F
:103F3000E0480068E149884246D2DF4890F9000035
:103F4000002825DADC4890F9000004F09BFF0446C5
:103F50000D46D8484079DA4901EBC000D0E900634A
:103F600032460020D74904F09EFE82460022D64BFE
:103F700004F0F2FD0022D54BCDE9000104F0ECFD88
:103F8000804622462B4604F0E7FDD14A03C261E099
:103F9000C74801681A311A2000F06FFFC449096848
:103FA000887E04F080FF04460D46C2484079C94926
:103FB00001EBC000D0E9006332462046294604F0F8
:103FC000CBFDC34A03C245E0BB4890F9000000287E
:103FD00025DAB94890F9000004F054FF804689467C
:103FE000B4484079B64901EBC000D0E900633246DD
:103FF0000020B44904F057FE04460022B24B04F0FE
:10400000ABFD0022B44BCDE9000104F0A5FD8246D2
:1040100042464B4604F0A0FDAD4A03C21AE0A44854
:1040200001681A311A2000F028FFA1490968887E2A
:1040300004F039FF04460D469E484079A74901EB3C
:10404000C000D0E9006332462046294604F084FDD2
:104050009F4A03C29748807A01282FD1944800686C
:10406000C07B93490968487391480068417B0D20E3
:1040700000F0DCFE8F48407A01280DD18C480068A2
:1040800090F82200964908808948006890F822102C
:10409000944800F004FF52E0854801681331132072
:1040A00000F0EBFE82480068C07C8D4908808048A3
:1040B0000068C17C8B4800F0F2FE40E07C4801685B
:1040C0001031102000F0D9FE7A48407A012819D129
:1040D0007748006890F82200814908807448006899
:1040E000007C73490968487371480068417B0D2062
:1040F00000F09CFE6E48006890F82210794800F0AD
:10410000CEFE1CE06A4801681331132000F0B5FEB2
:1041100067480068C07C7249088065480068007C78
:1041200063490968487362480068417B0D2000F0CC
:104130007DFE5F480068C17C6A4800F0B0FE5D48C3
:10414000807A012802D15949087002E002205749BB
:1041500008700220029037E10120544908700320C2
:10416000029031E10120FFF767FC5248C07A012834
:104170001AD1F5204E49096848744E48007B4C49D5
:10418000096881F824004A4801681C311C2000F0AD
:1041900074FE47490968097F01F03F01524A52F80D
:1041A000210000F045F908E0F7204149096848740A
:1041B00000203F49096881F824003D48006890F8D4
:1041C0002410242000F032FE39480068417C112080
:1041D00000F02CFE454800783549096881F8220036
:1041E0003348006890F82210222000F01FFE0020C3
:1041F0002F49096888732E480068817B0E2000F0E3
:1042000015FE2B480068807B2949096848732848B7
:104210000068417B0D2000F009FE2548006890F8F9
:104220002210304800F032FE41202149096881F80F
:104230003F0040201E49096881F8400002221C48C6
:1042400001683F31402000F0D3FD0320FFF7F4FB6D
:10425000062016490870B7E025A005F0E9F800F03F
:1042600027FE012806D10821122000F0DFFD0720DB
:104270000E49087000F02AFE012851D10D48C07A7D
:10428000012849D10A4801681C311C2000F0F5FDC5
:1042900007490968097F01F03F01134A38E000002F
:1042A000100100200401002008010020F00000207F
:1042B000EC000020D0000020F4000020008F4233EA
:1042C000C0AA00080000244000C065C000001040E3
:1042D000F800002010AB00080000184060AB000898
:1042E000F2000020E4020020B0AB00080C01002026
:1042F0003D3D3D52464C525F53544154455F5458E6
:104300005F52554E4E494E473D3D3D0A000000006C
:1043100052F8210000F08CF80221122000F086FDF6
:1043200052E02BA005F084F80120FFF785FB002068
:104330002E4908700420029046E02DA005F078F880
:104340000120FFF779FBFA203049096848742F48AB
:104350000068417C112000F069FD00202B490968AC
:1043600081F83F002949096881F840000222274866
:1043700001683F31402000F03BFD0720FFF75CFB68
:104380000A201A4908701FE021A005F051F800F03A
:10439000A4FD012816D10421122000F047FD00F0F1
:1043A000A3FD012809D10121122000F03FFD0120C9
:1043B0000E4908700820029004E000200B490870A4
:1043C0000720029000E000BF00BF0298BDE8FE8F0A
:1043D0003D3D3D52464C525F53544154455F545805
:1043E0005F444F4E453D3D3D0A000000F000002077
:1043F0003D3D3D52464C525F53544154455F43410D
:10440000445F494E49543D3D3D0A0000EC00002008
:104410003D3D3D52464C525F53544154455F4341EC
:10442000445F52554E4E494E473D3D3D0A00000007
:104430002DE9F0410446FA480460204604F033FDBB
:1044400005460022F74B04F0A0FC074604F084FD6B
:104450000446200CF44909688871200AF249096869
:10446000C871F14909680C720322EF480168891D7F
:10447000062000F0BDFCBDE8F0812DE9F0410322EB
:10448000E9480168891D062000F0D8FCE64800686C
:1044900080790004E4490968C97940EA0120E249C9
:1044A0000968097A0843DE490860086804F0FBFCE3
:1044B00006460022DB4B04F0F6FB044604F04CFDFC
:1044C000D749086008460068BDE8F08110B5044689
:1044D000D54801680931092000F0CFFCD2480168B5
:1044E0004C314D2000F0C9FCCF480068407A00F004
:1044F0008000802841D1CC48006890F84C0000F042
:10450000870087281CD1052C00DA0524142C00DD37
:104510001424C5480068407A00F08F0040F0700015
:10452000C14909684872C0480068407A00F0F0004C
:10453000611F01F00F010843BB49096848723AE066
:10454000022C00DA0224112C00DD1124B648006888
:10455000407A00F08F0040F07000B349096848725B
:10456000B1480068407A00F0F000A11E01F00F0190
:104570000843AD49096848721DE0B4F1FF3F01DA14
:104580004FF0FF340E2C00DD0E24A7480068407A5F
:1045900000F08F0040F07000A34909684872A248FB
:1045A0000068407A00F0F000611C01F00F01084340
:1045B0009D49096848729C480068417A092000F0CA
:1045C00035FC9748047110BD10B597480168093152
:1045D000092000F052FC944801684C314D2000F055
:1045E0004CFC91480068407A00F08000802819D186
:1045F0008D48006890F84C0000F00700072808D1AB
:1046000089480068407A20F0F000401D8449087114
:1046100010E085480068407A20F0F000801C804956
:10462000087107E080480068407A20F0F000401EE2
:104630007B4908717A4890F9040010BD10B5044612
:10464000794801681D311D2000F017FC764800688C
:10465000407F64F31F107449096848777248006806
:10466000417F1D2000F0E2FB6D48447110BD10B584
:104670006D4801681D311D2000F0FFFB6A4800688D
:10468000407F0011664948710846407910BD10B559
:104690000446654801683031312000F0EEFB624885
:1046A000006890F8300000F0F80020435E49096887
:1046B00081F830005C48006890F83010312000F03C
:1046C000B5FB10BD10B504460C2C01DD0C2402E036
:1046D000062C00DA0624062C03D10520FFF7D7FFAD
:1046E00002E00320FFF7D3FF4F4801681E311E2070
:1046F00000F0C3FB4C480068807F64F31F104A49F8
:104700000968887748480068817F1E2000F08EFB8A
:104710004348847110BD10B5434801681E311E2006
:1047200000F0ABFB40480068807F00113C49887175
:104730000846807910BD10B504463B4801681D311C
:104740001D2000F09AFB38480068407F00F0F1001F
:1047500040EA440034490968487733480068417F9B
:104760001D2000F063FB2E48C47110BD10B52E480B
:1047700001681D311D2000F080FB2B480068407F40
:1047800020F0F10040102649C8710846C07910BDDC
:1047900010B50446244801681E311E2000F06DFB50
:1047A00021480068807F00F0FB0040EA84001E4939
:1047B000096888771C480068817F1E2000F036FB5E
:1047C0001748047210BD10B504460222164801684D
:1047D0002031202000F032FB200A1349096881F8BB
:1047E00020001149096881F8214002220E48016821
:1047F0002031202000F0FCFA10BD10B502220A483A
:1048000001682031202000F019FB0748006890F86B
:1048100021100548006890F8200041EA002010BDF2
:10482000D000002080844E40EC00002010B5C64827
:1048300001681E311E2000F020FBC3480068807F05
:1048400000F00400401008B1012000E00020BF4942
:1048500008720846007A10BD10B50446BA480168CF
:104860001D311D2000F009FBB7480068407F00F0B3
:10487000FE002043B44909684877B3480068417F87
:104880001D2000F0D3FAB148447210BD10B5AE48F7
:1048900001681D311D2000F0F0FAAB480068407F30
:1048A00000F00100A94948720846407A10BDA749A6
:1048B00088727047A548807A7047A449C8727047CB
:1048C000A248C07A704710B504469F48006880F837
:1048D00024409D48006890F82410242000F0A6FA97
:1048E0009A48047310BD10B59748016824312420FC
:1048F00000F0C3FA9448006890F8240093490873C4
:104900000846007B10BD9149086170478F480069D7
:1049100070478E49486170478C484069704710B5B0
:1049200004468948006880F822408748006890F86B
:104930002210222000F07AFA8448047610BD10B5C7
:10494000814801682231222000F097FA7E480068F1
:1049500090F822007D4908760846007E10BD10B50B
:104960000446794801684C314D2000F086FA7648BB
:1049700001680931092000F080FA73480068407A24
:1049800000F08000802807D1012C0AD187206E49D1
:10499000096881F84C0004E084206B49096881F8BB
:1049A0004C006948006890F84C104D2000F03EFA29
:1049B00010BD10B5644801684C314D2000F05DFA1F
:1049C0006148006890F84C0000F00700072801D10A
:1049D000012010BD0020FCE710B504465A480168CC
:1049E0000931092000F049FA57480068407A00F080
:1049F0007F00204354490968487253480068417A4F
:104A0000092000F013FA10BD10B54F4801680931B4
:104A1000092000F032FA4C480068407A20F07F000C
:104A200010BD10B50446484801680A310A2000F05C
:104A300024FA45480068807A00F0F00024F0F00184
:104A400008434149096888723F480068817A0A2012
:104A500000F0ECF910BD10B53B4801680A310A209E
:104A600000F00BFA38480068807A20F0F00010BDA2
:104A700010B504460222344801681E311E2000F0A1
:104A8000DDF931480068807F00F0FC006FF0FC0128
:104A900001EA242108432C49096888772A490968D2
:104AA000CC770222284801681E311E2000F0A0F9B0
:104AB00010BD10B50222244801681E311E2000F0EE
:104AC000BDF921480068C07F1F490968897F21F02E
:104AD000FC0140EA012010BD10B504461A480168E7
:104AE0002631262000F0C9F91748006890F8260002
:104AF00000F0F70040EAC4001349096881F8260075
:104B00001148006890F82610262000F08FF910BD9B
:104B100010B50D4801682631262000F0AEF90A488C
:104B2000006890F82600C0F3C00010BD10B506481C
:104B300001683031312000F0A0F90348006890F896
:104B4000300000F0070010BDEC000020D000002075
:104B500000B587B001210420FCF784FC0121080383
:104B6000FCF780FC03208DF8060018208DF8070064
:104B70002020ADF8040001A92748FCF797F9802010
:104B8000ADF8040001A92448FCF790F94020ADF8E5
:104B9000040001A92048FCF789F901210846FCF727
:104BA00061FC01211D48FCF752FA0020ADF8080015
:104BB0004FF48270ADF80A000020ADF80C00ADF89B
:104BC0000E00ADF810004FF40070ADF81200102088
:104BD000ADF814000020ADF816000720ADF818005D
:104BE00002A90F48FCF7C8FC01210D48FCF769FD3C
:104BF00007B000BD10B5044621460948FCF792FDF8
:104C000000BF01210648FCF7E0FD0028F9D0044868
:104C1000FCF78AFDC0B210BD000801400002300060
:104C20000030014070B5224800684FF47A72B0FB42
:104C3000F2F1B1F1807F01D301201DE021F07F402E
:104C4000401E4FF0E022506150170F22002807DA73
:104C500013071D0E174B00F00F04241F1D5503E012
:104C600013071C0E144B1C5400BF00204FF0E02211
:104C7000906107201061002008B100BFFEE7FFF738
:104C800067FF70BD0D4A116800BF0C4A1268521AC6
:104C90008242FAD370474FF47A7300FB03F1074B5B
:104CA0001A6800BF054B1B689B1A8B42FAD37047EA
:104CB0000000002018ED00E000E400E010010020FA
:104CC00010B504219448FCF79EF908219248FCF79E
:104CD0009CF910BD10B504218F48FCF796F9082106
:104CE0008D48FCF790F910BD08B501217D20FCF737
:104CF000B9FB10208DF8030003208DF8020010206E
:104D0000ADF8000069468448FCF7D0F80122102174
:104D10008148FCF77CF90420ADF8000069467E4824
:104D2000FCF7C4F80820ADF8000069467A48FCF7A3
:104D3000BDF8FFF7C5FF04208DF803000002ADF8B1
:104D4000000069467548FCF7B1F84FF40060ADF813
:104D5000000069467148FCF7A9F84FF48050ADF89F
:104D6000000069466D48FCF7A1F84FF40050ADF81B
:104D7000000069466948FCF799F84FF40050ADF817
:104D8000000069466548FCF791F84FF40050ADF813
:104D9000000069466148FCF789F808BD38B504464B
:104DA000012C12D12020ADF8000003208DF8020064
:104DB00010208DF8030069465848FCF777F8002268
:104DC00020215648FCF723F911E02020ADF800001F
:104DD00003208DF8020010208DF8030069464F482B
:104DE000FCF764F8012220214C48FCF710F938BD8B
:104DF0002DE9F04105460E4617460022102146488F
:104E0000FCF705F945F08000FFF7F4FE002404E00C
:104E1000305DFFF7EFFE601CC4B2BC42F8DB01223C
:104E200010213D48FCF7F3F8BDE8F08113B50446C6
:104E3000012201A92046FFF7DBFF1CBD2DE9F0414F
:104E400005460E461746002210213348FCF7DFF8CE
:104E500005F07F00FFF7CEFE002405E00020FFF7FD
:104E6000C9FE3055601CC4B2BC42F7DB01221021E0
:104E70002948FCF7CCF8BDE8F08170B504460D4632
:104E8000012229462046FFF7D9FF70BD70B50446C0
:104E90000D462A4621460020FFF7AAFF70BD70B5D7
:104EA00004460D462A4621460020FFF7C7FF70BD85
:104EB00010B54FF480611948FCF78BF810BD10B5A0
:104EC0004FF400611548FCF784F810BD10B54FF49D
:104ED00080511248FCF77DF810BD10B54FF4005119
:104EE0000E48FCF776F810BD10B54FF400510B4892
:104EF000FCF76FF810BD10B54FF400510748FCF7F0
:104F000068F810BD10B5044614B1FFF7E3FE01E0E8
:104F1000FFF7D6FE10BD000000080140000C014064
:104F200070B505460C4600F0CBF9D02000F072FABF
:104F300000F003FA18B100F0E1F9012070BD284635
:104F400000F068FA00F0F9F9204600F063FA00F08A
:104F5000F4F918B100F0D2F90120EFE700F0CEF932
:104F60000020EBE770B504460025BC2C01DB0125D1
:104F700010E0622C01DB02250CE02A2C01DB03256A
:104F800008E0142C01DB042504E00A2C01DB0525D4
:104F900000E0062529461A20FFF7C2FF70BD70B554
:104FA0000446B4F57A7F01DD4FF47A74042C00DAFC
:104FB00004244FF47A7090FBF4F0401EC5B22946E9
:104FC0001920FFF7ADFF0546264604EBD671C1F365
:104FD0004F00FFF7C7FF70BD70B5044600F070F9D1
:104FE000D02000F017FA00F0A8F9204600F012FADD
:104FF00000F0A3F900F064F9D12000F00BFA00F002
:105000009CF9002000F02FFA054600F077F92846B9
:1050100070BD10B50446E006010E1C20FFF780FFAE
:1050200010BD10B50446E006010E1B20FFF778FF07
:1050300010BD10B500F02DF980216B20FFF770FF37
:10504000642003F07CFB00216B20FFF769FF032045
:10505000FFF7E7FF0020FFF7DCFF3220FFF79FFF9D
:1050600000213820FFF75CFF00216A20FFF758FF7E
:1050700000212320FFF754FF80213720FFF750FF46
:105080007520FFF7A9FF0446682C0BD101216B2086
:10509000FFF746FF00216C20FFF742FF3220FFF7A9
:1050A0007EFF01E0012010BD0020FCE72DE9F0416A
:1050B00006460F4614461D4600F002F9002141EA5B
:1050C0004601C8B200F0A6F900F037F920B100F0AF
:1050D00015F90120BDE8F081384600F09BF900F099
:1050E0002CF900F0EDF8012101EB4601C8B200F007
:1050F00091F900F022F90DE0012C04D1002000F01C
:10510000B2F9287003E0012000F0ADF92870601EAC
:10511000C4B26D1C002CEFD100F0F0F80020D9E7EC
:105120002DE9F84F6B46022241216820FFF7BEFFB0
:105130009DF801009DF8001040EA01200FFA80FA66
:10514000504603F09FFE804600224B4B03F01DFEAD
:1051500006464A4A4A4B03F0FFFC044603F040FF70
:1051600083464849584603F087FC044603F0A8FEEE
:1051700000B2BDE8F88F2DE9FC4104460D46164605
:105180006B46062243216820FFF790FF0746BFB910
:105190009DF801009DF8001040EA012000B2208037
:1051A0009DF803009DF8021040EA012000B228801B
:1051B0009DF805009DF8041040EA012000B23080FF
:1051C0003846BDE8FC812DE9FC4104460D461646F3
:1051D0006B4606223B216820FFF768FF0746BFB9F0
:1051E0009DF801009DF8001040EA012000B22080E7
:1051F0009DF803009DF8021040EA012000B22880CB
:105200009DF805009DF8041040EA012000B23080AE
:105210003846BDE8FC812DE9F04105460E461746AB
:10522000984600F04DF8002141EA4501C8B200F06F
:10523000F1F800F082F820B100F060F80120BDE83C
:10524000F081304600F0E6F800F077F800240CE03A
:1052500018F8040000F0DEF800F06FF818B100F064
:105260004DF80120EBE7601CC4B2BC42F0DB00F05B
:1052700045F80020E3E7000000407540A4703D0AB7
:10528000D74342400000C84210B5022003F033FA71
:1052900010BD08B501210820FCF7E4F8C020ADF8E6
:1052A000000010208DF8030003208DF802006946ED
:1052B0008548FBF7FBFDC0218348FBF7A4FE08BD32
:1052C00010B58148006820F070407F4908600846AA
:1052D000006840F04050086001207C4908607C492B
:1052E000C1F89801FFF7D0FF002078490860FFF768
:1052F000CBFF00207649C1F8980110BD10B5724867
:10530000006820F07040704908600846006840F06E
:105310004050086000206D49091F08606C49C1F8C1
:105320009C01FFF7B1FF01206849091F0860684927
:10533000C1F89C01FFF7A8FF10BD10B5002462481A
:10534000006820F07040604908600846006840F03E
:105350000040086001205D490860FFF795FF0120CB
:105360005B49C1F89801FFF78FFF07E0601CC4B2EA
:10537000FA2C03DDFFF7C2FF012010BD534880382F
:1053800000680028F2D15149091F086000BFF4E706
:1053900010B500204D49091F08604B48006820F0F7
:1053A0007040494908600846006840F04050086075
:1053B00000204749C1F89C01FFF766FF01204349DF
:1053C000091F0860FFF760FF00204149C1F89801FC
:1053D00010BD10B500203D49091F08603A4800681B
:1053E00020F07040384908600846006840F040509E
:1053F000086001203649C1F89C01FFF745FF0120F4
:105400003249091F0860FFF73FFF00203049C1F80B
:10541000980110BD70B504462B48006820F070401C
:10542000294908600846006840F0405008600020A4
:105430002649091F0860002512E0E0092349086099
:105440006006040E01202249C1F89801FFF71CFFF5
:1054500000201E49091F0860FFF716FF681CC5B22F
:10546000082DEADB70BD70B50546002416480068BB
:1054700020F07040144908600846006840F0004081
:105480000860002615E000201049091F0860FFF79A
:10549000FBFE01200E49C1F898016006040E0B487E
:1054A0008038006808B1601CC4B2FFF7EDFE701CC4
:1054B000C6B2082EE7DB15B9FFF78BFF01E0FFF757
:1054C00067FF204670BD0000000C01409C81214216
:1054D0000080214238B50446F74890F82400C0B156
:1054E00014B10220009001E000200090F24A1268FE
:1054F000D17BF14A526810786B460122FFF78BFE90
:1055000010B14FF0FF3038BD9DF80010EA484174EB
:1055100023E0E948807A10B94FF0FF30F3E724B177
:10552000E548407C08B10020EDE714B1012000906F
:1055300001E000200090E04A1268D17BDE4A526808
:1055400010786B460122FFF766FE10B14FF0FF3076
:10555000D9E79DF80010D84841740020D3E738B54A
:1055600000241FE0D4480068C07AA04204D0D2488A
:105570000068407DA04200D112E0CF494968087818
:105580006B4601222146FFF791FD10B14FF0FF302D
:1055900038BD9DF800202146C8A003F049FF00BF98
:1055A000601CC4B2C44840680079A042DADC002024
:1055B000EEE770B504460D46BF480068C07AA042C9
:1055C00004D0BD480068407DA04202D14FF0FF30BA
:1055D00070BDB94840680079A04202DC4FF0FF304E
:1055E000F6E7B549496808782B4601222146FFF7BE
:1055F0005DFDEDE738B50446AF4890F82300A042C2
:1056000001D1002038BD14B13020009001E000200D
:105610000090A948807C20B19DF8000040F0020075
:105620000090A54890F8220020B19DF8000040F0BD
:1056300080000090A04A1268117D9F4A526810783D
:105640006B460122FFF7E7FD10B14FF0FF30D9E7BD
:10565000994880F823400020D4E738B5044604F088
:10566000700010B10120009005E014B100200090FE
:1056700001E040200090904A1268917C8E4A526866
:1056800010786B460122FFF7C6FD20B100218A4841
:105690008172481E38BD9DF8000020F04001864808
:1056A00001730020009004F0400020B99DF8000034
:1056B00040F00400009004F0200020B99DF80000A4
:1056C00040F00200009004F0100020B99DF80000A6
:1056D00040F00100009004F0080020B99DF800009F
:1056E00040F038000090744A1268D17C724A5268C7
:1056F00010786B460122FFF78EFD20B100216E4825
:105700008172481EC6E724B1082C02D00020FFF7A2
:1057100071FF6948847200210175322003F00FF88F
:105720000020B7E738B504466348807CA04201D129
:10573000002038BD002C46D05F4A126811795E4ABD
:10574000526810786B460122FFF7B0FC10B14FF0A1
:10575000FF30EEE79DF8000020F020000090564A50
:1057600012681179544A526810786B460122FFF78B
:1057700052FD10B14FF0FF30DBE7032002F0DFFFF6
:10578000022000904C4890F8220020B19DF80000C3
:1057900040F080000090484890F8230020B19DF828
:1057A000000040F030000090434A1268117D424AE8
:1057B000526810786B460122FFF72DFD002851D06A
:1057C0004FF0FF30B5E73C4A126811793A4A526807
:1057D00010786B460122FFF769FC10B14FF0FF30E3
:1057E000A7E73548807A00F0010028B19DF8000055
:1057F00040F02000009004E09DF8000020F0200020
:1058000000902D4A126811792B4A526810786B4625
:105810000122FFF700FD10B14FF0FF3089E70320B0
:1058200002F08DFF244890F8220010B180200090F3
:1058300001E000200090204890F8230020B19DF85E
:10584000000040F0300000901B4A1268117D1A4A97
:10585000526810786B460122FFF7DDFC10B14FF063
:10586000FF3066E714488474002062E708B51248E8
:10587000807A10B94FF0FF3008BD002000900E4A2A
:105880001268D17B0C4A526810786B460122FFF7F0
:10589000C2FC10B14FF0FF30EEE7074A12685179B1
:1058A000054A526810786B460122FFF7B4FC68B1D4
:1058B0004FF0FF30E0E70000140100202523357889
:1058C0003A20252335780D0A00000000F84A1268B6
:1058D0001179F74A526810786B460122FFF79BFC5A
:1058E00010B14FF0FF30C7E7F14890F824000028CE
:1058F00053D00C200090EE4A12681179EC4A52689D
:1059000010786B460122FFF786FC10B14FF0FF3094
:10591000B2E7322002F013FFC0200090E448807A02
:1059200000F0010020B19DF8000040F02000009040
:10593000DF4A12681179DE4A526810786B460122FC
:10594000FFF769FC10B14FF0FF3095E7D848407C75
:1059500010B10220009001E000200090D44A1268AB
:10596000D17BD34A526810786B460122FFF753FC73
:1059700010B14FF0FF307FE700200090CC4A126852
:105980005179CB4A526810786B460122FFF743FCED
:10599000002855D04FF0FF306EE704200090C44A35
:1059A00012681179C24A526810786B460122FFF7DB
:1059B00032FC10B14FF0FF305EE7BD48807C20B96B
:1059C000BB48807A00F0010010B94020009001E04F
:1059D00060200090B64A12681179B54A5268107872
:1059E0006B460122FFF717FC10B14FF0FF3043E781
:1059F000322002F0A4FEAE48407C10B1012000909D
:105A000001E000200090AA4A1268D17BA84A52689F
:105A100010786B460122FFF7FEFB10B14FF0FF300C
:105A20002AE7A34A12685179A14A52681078A04B1C
:105A300010330122FFF7EFFB10B14FF0FF301BE7EF
:105A4000002019E770B50446002624F001049848A8
:105A500090F8240008B1002070BD9548807A10B9F4
:105A60004FF0FF30F8E79248057C807A204090495B
:105A700008740846007CA04202D04FF0FF3600E0D8
:105A8000002614B98A48007D18B10120FFF722FDD5
:105A900002E00020FFF71EFD3CB1FFF7E7FE20B15A
:105AA000834805744FF0FF30D6E73046D4E738B569
:105AB00004467F48807A10B94FF0FF3038BDBC2CC7
:105AC00002DB0120009015E0622C02DB0220009036
:105AD00010E02A2C02DB032000900BE0142C02DBE8
